:100000000C9438000C9403010C9403010C9403012C
:100010000C9403010C9403010C9403010C94030150
:100020000C9403010C9403010C9403010C94030140
:100030000C9403010C9403010C9403010C94030130
:100040000C9403010C9403010C9403010C94030120
:100050000C9403010C9403010C9403010C94030110
:100060000C9403010C940301010001100002140020
:1000700011241FBECFEFD8E0DEBFCDBFE8E6F0E031
:1000800040E017C0B591A59135912591059107FDE7
:100090000CC095918591EF01F92FE82F05900D92F5
:1000A000A217B307D9F7FE0104C01D92A217B30728
:1000B000E1F7EF36F40731F70E9462000C94F80084
:0400C000F894FFCFE2
:1000C400CF93DF9300D000D000D0CDB7DEB78FEF51
:1000D40084B98AB945E050E064E070E0A9E0B0E09A
:1000E4000F2EF5E0EF2EF12CF02D03E010E06894D4
:1000F400CC24C1F8D12C4A30510524F06F5F7F4FD6
:1001040040E050E0663071052CF0119640E050E07C
:1001140060E070E0AA30B1054CF08FEFE81AF80AFD
:1001240040E050E060E070E0A0E0B0E0E6E0EE1611
:10013400F10454F00F5F1F4F40E050E060E070E0C6
:10014400A0E0B0E0E12CF12C0A3011056CF0FFEFD7
:10015400CF1ADF0A40E050E060E070E0A0E0B0E0D9
:10016400E12CF12C00E010E082E0C816D1047CF010
:100174000430110564F040E050E060E070E0A0E07D
:10018400B0E0E12CF12C00E010E0C12CD12CC982AC
:100194000A83EB82AC836D834E834F5F5F4F20E015
:1001A40030E020C0FC01E65FFE4FE081EBB9E1E006
:1001B400F0E0EC0FFD1FE80FF91FE081F0E0E050E4
:1001C400FF4FE081E5B9E3EFF1E03197F1F700C0CB
:1001D4000000019602C080E090E08630910514F39F
:0C01E4002F5F3F4F20353105B4F385CF6D
:1001F000EC010E9408010E940701CE010E94090142
:06020000CE010E94050181
:040206000C94000054
:04020A000E946000EE
:02020E00089551
:0202100008954F
:0202120008954D
:0A0214003F065B4F666D7D077F6FAC
:06021E000102040810209B
:00000001FF
